{
  "contractName": "AIModelMarketplace",
  "abi": [
    {
      "anonymous": false,
      "inputs": [
        {
          "indexed": false,
          "internalType": "address",
          "name": "user",
          "type": "address"
        },
        {
          "indexed": false,
          "internalType": "uint256",
          "name": "amount",
          "type": "uint256"
        }
      ],
      "name": "BalanceClaimed",
      "type": "event"
    },
    {
      "anonymous": false,
      "inputs": [
        {
          "indexed": false,
          "internalType": "address",
          "name": "user",
          "type": "address"
        },
        {
          "indexed": false,
          "internalType": "uint256",
          "name": "newBalance",
          "type": "uint256"
        }
      ],
      "name": "BalanceUpdated",
      "type": "event"
    },
    {
      "anonymous": false,
      "inputs": [
        {
          "indexed": false,
          "internalType": "address",
          "name": "owner",
          "type": "address"
        },
        {
          "indexed": false,
          "internalType": "uint256",
          "name": "amount",
          "type": "uint256"
        }
      ],
      "name": "FundsWithdrawn",
      "type": "event"
    },
    {
      "anonymous": false,
      "inputs": [
        {
          "indexed": false,
          "internalType": "uint256",
          "name": "modelId",
          "type": "uint256"
        },
        {
          "indexed": false,
          "internalType": "string",
          "name": "name",
          "type": "string"
        },
        {
          "indexed": false,
          "internalType": "address",
          "name": "creator",
          "type": "address"
        }
      ],
      "name": "ModelListed",
      "type": "event"
    },
    {
      "anonymous": false,
      "inputs": [
        {
          "indexed": false,
          "internalType": "uint256",
          "name": "modelId",
          "type": "uint256"
        },
        {
          "indexed": false,
          "internalType": "address",
          "name": "buyer",
          "type": "address"
        }
      ],
      "name": "ModelPurchased",
      "type": "event"
    },
    {
      "anonymous": false,
      "inputs": [
        {
          "indexed": false,
          "internalType": "uint256",
          "name": "modelId",
          "type": "uint256"
        },
        {
          "indexed": false,
          "internalType": "uint256",
          "name": "rating",
          "type": "uint256"
        },
        {
          "indexed": false,
          "internalType": "address",
          "name": "rater",
          "type": "address"
        }
      ],
      "name": "ModelRated",
      "type": "event"
    },
    {
      "inputs": [],
      "name": "modelCount",
      "outputs": [
        {
          "internalType": "uint256",
          "name": "",
          "type": "uint256"
        }
      ],
      "stateMutability": "view",
      "type": "function",
      "constant": true
    },
    {
      "inputs": [
        {
          "internalType": "uint256",
          "name": "",
          "type": "uint256"
        }
      ],
      "name": "models",
      "outputs": [
        {
          "internalType": "string",
          "name": "name",
          "type": "string"
        },
        {
          "internalType": "string",
          "name": "description",
          "type": "string"
        },
        {
          "internalType": "uint256",
          "name": "price",
          "type": "uint256"
        },
        {
          "internalType": "address payable",
          "name": "creator",
          "type": "address"
        },
        {
          "internalType": "uint256",
          "name": "totalRating",
          "type": "uint256"
        },
        {
          "internalType": "uint256",
          "name": "ratingCount",
          "type": "uint256"
        },
        {
          "internalType": "bool",
          "name": "purchased",
          "type": "bool"
        }
      ],
      "stateMutability": "view",
      "type": "function",
      "constant": true
    },
    {
      "inputs": [
        {
          "internalType": "address",
          "name": "",
          "type": "address"
        }
      ],
      "name": "userFunds",
      "outputs": [
        {
          "internalType": "uint256",
          "name": "",
          "type": "uint256"
        }
      ],
      "stateMutability": "view",
      "type": "function",
      "constant": true
    },
    {
      "inputs": [
        {
          "internalType": "address",
          "name": "",
          "type": "address"
        },
        {
          "internalType": "uint256",
          "name": "",
          "type": "uint256"
        }
      ],
      "name": "userPurchasedModels",
      "outputs": [
        {
          "internalType": "uint256",
          "name": "",
          "type": "uint256"
        }
      ],
      "stateMutability": "view",
      "type": "function",
      "constant": true
    },
    {
      "inputs": [
        {
          "internalType": "string",
          "name": "name",
          "type": "string"
        },
        {
          "internalType": "string",
          "name": "description",
          "type": "string"
        },
        {
          "internalType": "uint256",
          "name": "price",
          "type": "uint256"
        }
      ],
      "name": "listModel",
      "outputs": [],
      "stateMutability": "nonpayable",
      "type": "function"
    },
    {
      "inputs": [
        {
          "internalType": "uint256",
          "name": "modelId",
          "type": "uint256"
        }
      ],
      "name": "purchaseModel",
      "outputs": [],
      "stateMutability": "payable",
      "type": "function",
      "payable": true
    },
    {
      "inputs": [
        {
          "internalType": "uint256",
          "name": "modelId",
          "type": "uint256"
        },
        {
          "internalType": "uint256",
          "name": "rating",
          "type": "uint256"
        }
      ],
      "name": "rateModel",
      "outputs": [],
      "stateMutability": "nonpayable",
      "type": "function"
    },
    {
      "inputs": [],
      "name": "withdrawFunds",
      "outputs": [],
      "stateMutability": "nonpayable",
      "type": "function"
    },
    {
      "inputs": [
        {
          "internalType": "uint256",
          "name": "modelId",
          "type": "uint256"
        }
      ],
      "name": "getModelDetails",
      "outputs": [
        {
          "internalType": "string",
          "name": "",
          "type": "string"
        },
        {
          "internalType": "string",
          "name": "",
          "type": "string"
        },
        {
          "internalType": "uint256",
          "name": "",
          "type": "uint256"
        },
        {
          "internalType": "address",
          "name": "",
          "type": "address"
        },
        {
          "internalType": "bool",
          "name": "",
          "type": "bool"
        },
        {
          "internalType": "uint8",
          "name": "",
          "type": "uint8"
        }
      ],
      "stateMutability": "view",
      "type": "function",
      "constant": true
    },
    {
      "inputs": [],
      "name": "getUserPurchasedModels",
      "outputs": [
        {
          "internalType": "uint256[]",
          "name": "",
          "type": "uint256[]"
        }
      ],
      "stateMutability": "view",
      "type": "function",
      "constant": true
    }
  ],
  "bytecode": "0x608060405234801561001057600080fd5b50611de7806100206000396000f3fe6080604052600436106100915760003560e01c80638387c6e1116100595780638387c6e11461019857806399c64cc8146101d5578063c6a645fe146101fe578063dc74686214610229578063e9b1c8b61461024557610091565b806312ee1c0e146100965780631ced75a1146100bf57806324600fc3146100fc57806331fc042f146101135780636a030ca914610155575b600080fd5b3480156100a257600080fd5b506100bd60048036038101906100b89190611196565b610270565b005b3480156100cb57600080fd5b506100e660048036038101906100e1919061127f565b610472565b6040516100f391906112ce565b60405180910390f35b34801561010857600080fd5b506101116104a3565b005b34801561011f57600080fd5b5061013a600480360381019061013591906112e9565b610658565b60405161014c969594939291906113e4565b60405180910390f35b34801561016157600080fd5b5061017c600480360381019061017791906112e9565b610816565b60405161018f9796959493929190611474565b60405180910390f35b3480156101a457600080fd5b506101bf60048036038101906101ba91906114f1565b610995565b6040516101cc91906112ce565b60405180910390f35b3480156101e157600080fd5b506101fc60048036038101906101f7919061151e565b6109ad565b005b34801561020a57600080fd5b50610213610bf3565b60405161022091906112ce565b60405180910390f35b610243600480360381019061023e91906112e9565b610bf9565b005b34801561025157600080fd5b5061025a610ece565b604051610267919061161c565b60405180910390f35b60008351116102b4576040517f08c379a00000000000000000000000000000000000000000000000000000000081526004016102ab9061168a565b60405180910390fd5b60008251116102f8576040517f08c379a00000000000000000000000000000000000000000000000000000000081526004016102ef906116f6565b60405180910390fd5b6040518060e001604052808481526020018381526020018281526020013373ffffffffffffffffffffffffffffffffffffffff16815260200160008152602001600081526020016000151581525060008060035481526020019081526020016000206000820151816000019080519060200190610376929190610f63565b506020820151816001019080519060200190610393929190610f63565b506040820151816002015560608201518160030160006101000a81548173ffffffffffffffffffffffffffffffffffffffff021916908373ffffffffffffffffffffffffffffffffffffffff1602179055506080820151816004015560a0820151816005015560c08201518160060160006101000a81548160ff0219169083151502179055509050507fc871238e094f30f9449f0d1948e935f470dcbf4dbc2b2aef67d45f45d4ea880b6003600081548092919061045090611745565b9190505584336040516104659392919061178d565b60405180910390a1505050565b6002602052816000526040600020818154811061048e57600080fd5b90600052602060002001600091509150505481565b6000600160003373ffffffffffffffffffffffffffffffffffffffff1673ffffffffffffffffffffffffffffffffffffffff1681526020019081526020016000205490506000811161052a576040517f08c379a000000000000000000000000000000000000000000000000000000000815260040161052190611817565b60405180910390fd5b60003373ffffffffffffffffffffffffffffffffffffffff168260405161055090611868565b60006040518083038185875af1925050503d806000811461058d576040519150601f19603f3d011682016040523d82523d6000602084013e610592565b606091505b50509050806105d6576040517f08c379a00000000000000000000000000000000000000000000000000000000081526004016105cd906118c9565b60405180910390fd5b6000600160003373ffffffffffffffffffffffffffffffffffffffff1673ffffffffffffffffffffffffffffffffffffffff168152602001908152602001600020819055507feaff4b37086828766ad3268786972c0cd24259d4c87a80f9d3963a3c3d999b0d338360405161064c9291906118e9565b60405180910390a15050565b6060806000806000806000806000898152602001908152602001600020905060008082600501541161068b5760006106a0565b8160050154826004015461069f9190611941565b5b9050816000018260010183600201548460030160009054906101000a900473ffffffffffffffffffffffffffffffffffffffff168560060160009054906101000a900460ff16858580546106f3906119a1565b80601f016020809104026020016040519081016040528092919081815260200182805461071f906119a1565b801561076c5780601f106107415761010080835404028352916020019161076c565b820191906000526020600020905b81548152906001019060200180831161074f57829003601f168201915b5050505050955084805461077f906119a1565b80601f01602080910402602001604051908101604052809291908181526020018280546107ab906119a1565b80156107f85780601f106107cd576101008083540402835291602001916107f8565b820191906000526020600020905b8154815290600101906020018083116107db57829003601f168201915b50505050509450975097509750975097509750505091939550919395565b6000602052806000526040600020600091509050806000018054610839906119a1565b80601f0160208091040260200160405190810160405280929190818152602001828054610865906119a1565b80156108b25780601f10610887576101008083540402835291602001916108b2565b820191906000526020600020905b81548152906001019060200180831161089557829003601f168201915b5050505050908060010180546108c7906119a1565b80601f01602080910402602001604051908101604052809291908181526020018280546108f3906119a1565b80156109405780601f1061091557610100808354040283529160200191610940565b820191906000526020600020905b81548152906001019060200180831161092357829003601f168201915b5050505050908060020154908060030160009054906101000a900473ffffffffffffffffffffffffffffffffffffffff16908060040154908060050154908060060160009054906101000a900460ff16905087565b60016020528060005260406000206000915090505481565b600080600084815260200190815260200160002090506000805b600260003373ffffffffffffffffffffffffffffffffffffffff1673ffffffffffffffffffffffffffffffffffffffff16815260200190815260200160002080549050811015610a8f5784600260003373ffffffffffffffffffffffffffffffffffffffff1673ffffffffffffffffffffffffffffffffffffffff1681526020019081526020016000208281548110610a6357610a626119d2565b5b906000526020600020015403610a7c5760019150610a8f565b8080610a8790611745565b9150506109c7565b508160030160009054906101000a900473ffffffffffffffffffffffffffffffffffffffff1673ffffffffffffffffffffffffffffffffffffffff163373ffffffffffffffffffffffffffffffffffffffff1614158015610aed5750805b610b2c576040517f08c379a0000000000000000000000000000000000000000000000000000000008152600401610b2390611a99565b60405180910390fd5b60018310158015610b3e575060058311155b610b7d576040517f08c379a0000000000000000000000000000000000000000000000000000000008152600401610b7490611b05565b60405180910390fd5b82826004016000828254610b919190611b25565b92505081905550816005016000815480929190610bad90611745565b91905055507f049431fe74f8ae6cc014f81a7d856c04e44cb6b1992e2a8863bcba3752c4e274848433604051610be593929190611b7b565b60405180910390a150505050565b60035481565b600080600083815260200190815260200160002090503373ffffffffffffffffffffffffffffffffffffffff168160030160009054906101000a900473ffffffffffffffffffffffffffffffffffffffff1673ffffffffffffffffffffffffffffffffffffffff1603610ca1576040517f08c379a0000000000000000000000000000000000000000000000000000000008152600401610c9890611c24565b60405180910390fd5b60008210158015610cb3575060035482105b610cf2576040517f08c379a0000000000000000000000000000000000000000000000000000000008152600401610ce990611c90565b60405180910390fd5b600015158160060160009054906101000a900460ff16151514610d4a576040517f08c379a0000000000000000000000000000000000000000000000000000000008152600401610d4190611cfc565b60405180910390fd5b80600201543414610d90576040517f08c379a0000000000000000000000000000000000000000000000000000000008152600401610d8790611d68565b60405180910390fd5b8060020154600160008360030160009054906101000a900473ffffffffffffffffffffffffffffffffffffffff1673ffffffffffffffffffffffffffffffffffffffff1673ffffffffffffffffffffffffffffffffffffffff1681526020019081526020016000206000828254610e079190611b25565b92505081905550600260003373ffffffffffffffffffffffffffffffffffffffff1673ffffffffffffffffffffffffffffffffffffffff16815260200190815260200160002082908060018154018082558091505060019003906000526020600020016000909190919091505560018160060160006101000a81548160ff0219169083151502179055507fc8581808129c51c0416692a5ea1b58e080ae8f21e384eefe2f2dc85d231d12ba8233604051610ec2929190611d88565b60405180910390a15050565b6060600260003373ffffffffffffffffffffffffffffffffffffffff1673ffffffffffffffffffffffffffffffffffffffff168152602001908152602001600020805480602002602001604051908101604052809291908181526020018280548015610f5957602002820191906000526020600020905b815481526020019060010190808311610f45575b5050505050905090565b828054610f6f906119a1565b90600052602060002090601f016020900481019282610f915760008555610fd8565b82601f10610faa57805160ff1916838001178555610fd8565b82800160010185558215610fd8579182015b82811115610fd7578251825591602001919060010190610fbc565b5b509050610fe59190610fe9565b5090565b5b80821115611002576000816000905550600101610fea565b5090565b6000604051905090565b600080fd5b600080fd5b600080fd5b600080fd5b6000601f19601f8301169050919050565b7f4e487b7100000000000000000000000000000000000000000000000000000000600052604160045260246000fd5b61106d82611024565b810181811067ffffffffffffffff8211171561108c5761108b611035565b5b80604052505050565b600061109f611006565b90506110ab8282611064565b919050565b600067ffffffffffffffff8211156110cb576110ca611035565b5b6110d482611024565b9050602081019050919050565b82818337600083830152505050565b60006111036110fe846110b0565b611095565b90508281526020810184848401111561111f5761111e61101f565b5b61112a8482856110e1565b509392505050565b600082601f8301126111475761114661101a565b5b81356111578482602086016110f0565b91505092915050565b6000819050919050565b61117381611160565b811461117e57600080fd5b50565b6000813590506111908161116a565b92915050565b6000806000606084860312156111af576111ae611010565b5b600084013567ffffffffffffffff8111156111cd576111cc611015565b5b6111d986828701611132565b935050602084013567ffffffffffffffff8111156111fa576111f9611015565b5b61120686828701611132565b925050604061121786828701611181565b9150509250925092565b600073ffffffffffffffffffffffffffffffffffffffff82169050919050565b600061124c82611221565b9050919050565b61125c81611241565b811461126757600080fd5b50565b60008135905061127981611253565b92915050565b6000806040838503121561129657611295611010565b5b60006112a48582860161126a565b92505060206112b585828601611181565b9150509250929050565b6112c881611160565b82525050565b60006020820190506112e360008301846112bf565b92915050565b6000602082840312156112ff576112fe611010565b5b600061130d84828501611181565b91505092915050565b600081519050919050565b600082825260208201905092915050565b60005b83811015611350578082015181840152602081019050611335565b8381111561135f576000848401525b50505050565b600061137082611316565b61137a8185611321565b935061138a818560208601611332565b61139381611024565b840191505092915050565b6113a781611241565b82525050565b60008115159050919050565b6113c2816113ad565b82525050565b600060ff82169050919050565b6113de816113c8565b82525050565b600060c08201905081810360008301526113fe8189611365565b905081810360208301526114128188611365565b905061142160408301876112bf565b61142e606083018661139e565b61143b60808301856113b9565b61144860a08301846113d5565b979650505050505050565b600061145e82611221565b9050919050565b61146e81611453565b82525050565b600060e082019050818103600083015261148e818a611365565b905081810360208301526114a28189611365565b90506114b160408301886112bf565b6114be6060830187611465565b6114cb60808301866112bf565b6114d860a08301856112bf565b6114e560c08301846113b9565b98975050505050505050565b60006020828403121561150757611506611010565b5b60006115158482850161126a565b91505092915050565b6000806040838503121561153557611534611010565b5b600061154385828601611181565b925050602061155485828601611181565b9150509250929050565b600081519050919050565b600082825260208201905092915050565b6000819050602082019050919050565b61159381611160565b82525050565b60006115a5838361158a565b60208301905092915050565b6000602082019050919050565b60006115c98261155e565b6115d38185611569565b93506115de8361157a565b8060005b8381101561160f5781516115f68882611599565b9750611601836115b1565b9250506001810190506115e2565b5085935050505092915050565b6000602082019050818103600083015261163681846115be565b905092915050565b7f546865206d6f64656c206e616d6520697320656d707479000000000000000000600082015250565b6000611674601783611321565b915061167f8261163e565b602082019050919050565b600060208201905081810360008301526116a381611667565b9050919050565b7f546865206d6f64656c206465736372697074696f6e20697320656d7074790000600082015250565b60006116e0601e83611321565b91506116eb826116aa565b602082019050919050565b6000602082019050818103600083015261170f816116d3565b9050919050565b7f4e487b7100000000000000000000000000000000000000000000000000000000600052601160045260246000fd5b600061175082611160565b91507fffffffffffffffffffffffffffffffffffffffffffffffffffffffffffffffff820361178257611781611716565b5b600182019050919050565b60006060820190506117a260008301866112bf565b81810360208301526117b48185611365565b90506117c3604083018461139e565b949350505050565b7f4e6f2066756e647320746f207769746864726177000000000000000000000000600082015250565b6000611801601483611321565b915061180c826117cb565b602082019050919050565b60006020820190508181036000830152611830816117f4565b9050919050565b600081905092915050565b50565b6000611852600083611837565b915061185d82611842565b600082019050919050565b600061187382611845565b9150819050919050565b7f5472616e73616374696f6e206572726f72000000000000000000000000000000600082015250565b60006118b3601183611321565b91506118be8261187d565b602082019050919050565b600060208201905081810360008301526118e2816118a6565b9050919050565b60006040820190506118fe600083018561139e565b61190b60208301846112bf565b9392505050565b7f4e487b7100000000000000000000000000000000000000000000000000000000600052601260045260246000fd5b600061194c82611160565b915061195783611160565b92508261196757611966611912565b5b828204905092915050565b7f4e487b7100000000000000000000000000000000000000000000000000000000600052602260045260246000fd5b600060028204905060018216806119b957607f821691505b6020821081036119cc576119cb611972565b5b50919050565b7f4e487b7100000000000000000000000000000000000000000000000000000000600052603260045260246000fd5b7f41206d6f64656c2063616e6e6f7420626520726174656420627920697473206360008201527f726561746f72206f722070656f706c652077686f206469646e2774207075726360208201527f686173652069742e000000000000000000000000000000000000000000000000604082015250565b6000611a83604883611321565b9150611a8e82611a01565b606082019050919050565b60006020820190508181036000830152611ab281611a76565b9050919050565b7f526174696e67206d757374206265206265747765656e203120616e6420350000600082015250565b6000611aef601e83611321565b9150611afa82611ab9565b602082019050919050565b60006020820190508181036000830152611b1e81611ae2565b9050919050565b6000611b3082611160565b9150611b3b83611160565b9250827fffffffffffffffffffffffffffffffffffffffffffffffffffffffffffffffff03821115611b7057611b6f611716565b5b828201905092915050565b6000606082019050611b9060008301866112bf565b611b9d60208301856112bf565b611baa604083018461139e565b949350505050565b7f546865206d6f64656c27732063726561746f722063616e6e6f7420627579206960008201527f7473206f776e206d6f64656c0000000000000000000000000000000000000000602082015250565b6000611c0e602c83611321565b9150611c1982611bb2565b604082019050919050565b60006020820190508181036000830152611c3d81611c01565b9050919050565b7f496e76616c6964206d6f64656c20494400000000000000000000000000000000600082015250565b6000611c7a601083611321565b9150611c8582611c44565b602082019050919050565b60006020820190508181036000830152611ca981611c6d565b9050919050565b7f4d6f64656c20416c726561647920507572636861736564000000000000000000600082015250565b6000611ce6601783611321565b9150611cf182611cb0565b602082019050919050565b60006020820190508181036000830152611d1581611cd9565b9050919050565b7f496e636f7272656374207061796d656e7420616d6f756e740000000000000000600082015250565b6000611d52601883611321565b9150611d5d82611d1c565b602082019050919050565b60006020820190508181036000830152611d8181611d45565b9050919050565b6000604082019050611d9d60008301856112bf565b611daa602083018461139e565b939250505056fea2646970667358221220f70d31fc3b26b5a7470efe1d3858616df3595156b60877738e225a221c55d3c764736f6c634300080d0033",
  "immutableReferences": {},
  "source": "// SPDX-License-Identifier: MIT\r\npragma solidity ^0.8.13;\r\n\r\ncontract AIModelMarketplace {\r\n    struct Model {\r\n        string name;\r\n        string description;\r\n        uint256 price;\r\n        address payable creator;\r\n        uint256 totalRating;\r\n        uint256 ratingCount;\r\n        bool purchased;\r\n    }\r\n\r\n    mapping(uint256 => Model) public models;\r\n    mapping(address => uint256) public userFunds;\r\n    mapping(address => uint256[]) public userPurchasedModels;\r\n    uint256 public modelCount;\r\n\r\n    event ModelListed(uint256 modelId, string name, address creator);\r\n    event ModelPurchased(uint256 modelId, address buyer);\r\n    event ModelRated(uint256 modelId, uint256 rating, address rater);\r\n    event FundsWithdrawn(address owner, uint256 amount);\r\n    event BalanceUpdated(address user, uint256 newBalance);\r\n    event BalanceClaimed(address user, uint256 amount);\r\n\r\n    function listModel(\r\n        string memory name,\r\n        string memory description,\r\n        uint256 price\r\n    ) public {\r\n        require(bytes(name).length > 0, \"The model name is empty\");\r\n        require(\r\n            bytes(description).length > 0,\r\n            \"The model description is empty\"\r\n        );\r\n\r\n        models[modelCount] = Model(\r\n            name,\r\n            description,\r\n            price,\r\n            payable(msg.sender),\r\n            0,\r\n            0,\r\n            false\r\n        );\r\n\r\n        emit ModelListed(modelCount++, name, msg.sender);\r\n    }\r\n\r\n    function purchaseModel(uint256 modelId) public payable {\r\n        Model storage model = models[modelId];\r\n\r\n        require(\r\n            model.creator != msg.sender,\r\n            \"The model's creator cannot buy its own model\"\r\n        );\r\n        require(modelId >= 0 && modelId < modelCount, \"Invalid model ID\");\r\n        require(model.purchased == false, \"Model Already Purchased\");\r\n        require(msg.value == model.price, \"Incorrect payment amount\");\r\n\r\n        userFunds[model.creator] += model.price;\r\n        userPurchasedModels[msg.sender].push(modelId);\r\n        model.purchased = true;\r\n\r\n        emit ModelPurchased(modelId, msg.sender);\r\n    }\r\n\r\n    function rateModel(uint256 modelId, uint256 rating) public {\r\n        Model storage model = models[modelId];\r\n        bool hasPurchased = false;\r\n\r\n        for (uint256 i = 0; i < userPurchasedModels[msg.sender].length; i++) {\r\n            if (userPurchasedModels[msg.sender][i] == modelId) {\r\n                hasPurchased = true;\r\n                break;\r\n            }\r\n        }\r\n\r\n        require(\r\n            msg.sender != model.creator && hasPurchased,\r\n            \"A model cannot be rated by its creator or people who didn't purchase it.\"\r\n        );\r\n        require(rating >= 1 && rating <= 5, \"Rating must be between 1 and 5\");\r\n\r\n        model.totalRating += rating;\r\n        model.ratingCount++;\r\n\r\n        emit ModelRated(modelId, rating, msg.sender);\r\n    }\r\n\r\n    function withdrawFunds() public {\r\n        uint256 amount = userFunds[msg.sender];\r\n        require(amount > 0, \"No funds to withdraw\");\r\n\r\n        (bool success, ) = payable(msg.sender).call{value: amount}(\"\");\r\n        require(success, \"Transaction error\");\r\n\r\n        userFunds[msg.sender] = 0;\r\n\r\n        emit FundsWithdrawn(msg.sender, amount);\r\n    }\r\n\r\n    function getModelDetails(\r\n        uint256 modelId\r\n    )\r\n        public\r\n        view\r\n        returns (string memory, string memory, uint256, address, bool, uint8)\r\n    {\r\n        Model storage model = models[modelId];\r\n        uint8 averageRating = uint8(\r\n            model.ratingCount > 0 ? model.totalRating / model.ratingCount : 0\r\n        );\r\n        return (\r\n            model.name,\r\n            model.description,\r\n            model.price,\r\n            model.creator,\r\n            model.purchased,\r\n            averageRating\r\n        );\r\n    }\r\n\r\n    function getUserPurchasedModels() public view returns (uint256[] memory) {\r\n        return userPurchasedModels[msg.sender];\r\n    }\r\n}\r\n",
  "sourcePath": "C:\\Users\\iliya\\Desktop\\AI-model-marketplace\\contracts\\ai_model_marketplace.sol",
  "compiler": {
    "name": "solc",
    "version": "0.8.13+commit.abaa5c0e.Emscripten.clang"
  },
  "schemaVersion": "3.4.16",
  "updatedAt": "2024-10-02T13:32:50.475Z",
  "networkType": "ethereum",
  "devdoc": {
    "kind": "dev",
    "methods": {},
    "version": 1
  },
  "userdoc": {
    "kind": "user",
    "methods": {},
    "version": 1
  }
}